{
  "contractName": "DNVR",
  "abi": [
    {
      "constant": true,
      "inputs": [],
      "name": "name",
      "outputs": [
        {
          "name": "",
          "type": "string"
        }
      ],
      "payable": false,
      "stateMutability": "view",
      "type": "function"
    },
    {
      "constant": true,
      "inputs": [],
      "name": "decimals",
      "outputs": [
        {
          "name": "",
          "type": "uint8"
        }
      ],
      "payable": false,
      "stateMutability": "view",
      "type": "function"
    },
    {
      "constant": true,
      "inputs": [],
      "name": "version",
      "outputs": [
        {
          "name": "",
          "type": "string"
        }
      ],
      "payable": false,
      "stateMutability": "view",
      "type": "function"
    },
    {
      "constant": true,
      "inputs": [],
      "name": "unitsOneEthCanBuy",
      "outputs": [
        {
          "name": "",
          "type": "uint256"
        }
      ],
      "payable": false,
      "stateMutability": "view",
      "type": "function"
    },
    {
      "constant": false,
      "inputs": [],
      "name": "renounceOwnership",
      "outputs": [],
      "payable": false,
      "stateMutability": "nonpayable",
      "type": "function"
    },
    {
      "constant": true,
      "inputs": [],
      "name": "owner",
      "outputs": [
        {
          "name": "",
          "type": "address"
        }
      ],
      "payable": false,
      "stateMutability": "view",
      "type": "function"
    },
    {
      "constant": true,
      "inputs": [],
      "name": "totalEthInWei",
      "outputs": [
        {
          "name": "",
          "type": "uint256"
        }
      ],
      "payable": false,
      "stateMutability": "view",
      "type": "function"
    },
    {
      "constant": true,
      "inputs": [],
      "name": "symbol",
      "outputs": [
        {
          "name": "",
          "type": "string"
        }
      ],
      "payable": false,
      "stateMutability": "view",
      "type": "function"
    },
    {
      "constant": false,
      "inputs": [
        {
          "name": "_newOwner",
          "type": "address"
        }
      ],
      "name": "transferOwnership",
      "outputs": [],
      "payable": false,
      "stateMutability": "nonpayable",
      "type": "function"
    },
    {
      "inputs": [],
      "payable": false,
      "stateMutability": "nonpayable",
      "type": "constructor"
    },
    {
      "anonymous": false,
      "inputs": [
        {
          "indexed": true,
          "name": "_from",
          "type": "address"
        },
        {
          "indexed": true,
          "name": "_to",
          "type": "address"
        },
        {
          "indexed": false,
          "name": "_value",
          "type": "uint256"
        }
      ],
      "name": "Transfer",
      "type": "event"
    },
    {
      "anonymous": false,
      "inputs": [
        {
          "indexed": true,
          "name": "_owner",
          "type": "address"
        },
        {
          "indexed": true,
          "name": "_spender",
          "type": "address"
        },
        {
          "indexed": false,
          "name": "_value",
          "type": "uint256"
        }
      ],
      "name": "Approval",
      "type": "event"
    },
    {
      "anonymous": false,
      "inputs": [
        {
          "indexed": true,
          "name": "previousOwner",
          "type": "address"
        }
      ],
      "name": "OwnershipRenounced",
      "type": "event"
    },
    {
      "anonymous": false,
      "inputs": [
        {
          "indexed": true,
          "name": "previousOwner",
          "type": "address"
        },
        {
          "indexed": true,
          "name": "newOwner",
          "type": "address"
        }
      ],
      "name": "OwnershipTransferred",
      "type": "event"
    },
    {
      "constant": false,
      "inputs": [],
      "name": "fund",
      "outputs": [],
      "payable": true,
      "stateMutability": "payable",
      "type": "function"
    },
    {
      "constant": false,
      "inputs": [],
      "name": "kill",
      "outputs": [],
      "payable": false,
      "stateMutability": "nonpayable",
      "type": "function"
    },
    {
      "constant": false,
      "inputs": [],
      "name": "togglePause",
      "outputs": [
        {
          "name": "",
          "type": "bool"
        }
      ],
      "payable": false,
      "stateMutability": "nonpayable",
      "type": "function"
    },
    {
      "constant": false,
      "inputs": [
        {
          "name": "_spender",
          "type": "address"
        },
        {
          "name": "_value",
          "type": "uint256"
        },
        {
          "name": "_extraData",
          "type": "bytes"
        }
      ],
      "name": "approveAndCall",
      "outputs": [
        {
          "name": "success",
          "type": "bool"
        }
      ],
      "payable": false,
      "stateMutability": "nonpayable",
      "type": "function"
    },
    {
      "constant": true,
      "inputs": [],
      "name": "totalSupply",
      "outputs": [
        {
          "name": "",
          "type": "uint256"
        }
      ],
      "payable": false,
      "stateMutability": "view",
      "type": "function"
    },
    {
      "constant": false,
      "inputs": [
        {
          "name": "_to",
          "type": "address"
        },
        {
          "name": "_value",
          "type": "uint256"
        }
      ],
      "name": "transfer",
      "outputs": [
        {
          "name": "",
          "type": "bool"
        }
      ],
      "payable": false,
      "stateMutability": "nonpayable",
      "type": "function"
    },
    {
      "constant": true,
      "inputs": [
        {
          "name": "_owner",
          "type": "address"
        }
      ],
      "name": "balanceOf",
      "outputs": [
        {
          "name": "",
          "type": "uint256"
        }
      ],
      "payable": false,
      "stateMutability": "view",
      "type": "function"
    },
    {
      "constant": false,
      "inputs": [
        {
          "name": "_from",
          "type": "address"
        },
        {
          "name": "_to",
          "type": "address"
        },
        {
          "name": "_value",
          "type": "uint256"
        }
      ],
      "name": "transferFrom",
      "outputs": [
        {
          "name": "",
          "type": "bool"
        }
      ],
      "payable": false,
      "stateMutability": "nonpayable",
      "type": "function"
    },
    {
      "constant": false,
      "inputs": [
        {
          "name": "_spender",
          "type": "address"
        },
        {
          "name": "_value",
          "type": "uint256"
        }
      ],
      "name": "approve",
      "outputs": [
        {
          "name": "",
          "type": "bool"
        }
      ],
      "payable": false,
      "stateMutability": "nonpayable",
      "type": "function"
    },
    {
      "constant": true,
      "inputs": [
        {
          "name": "_owner",
          "type": "address"
        },
        {
          "name": "_spender",
          "type": "address"
        }
      ],
      "name": "allowance",
      "outputs": [
        {
          "name": "",
          "type": "uint256"
        }
      ],
      "payable": false,
      "stateMutability": "view",
      "type": "function"
    },
    {
      "constant": false,
      "inputs": [
        {
          "name": "_spender",
          "type": "address"
        },
        {
          "name": "_addedValue",
          "type": "uint256"
        }
      ],
      "name": "increaseApproval",
      "outputs": [
        {
          "name": "",
          "type": "bool"
        }
      ],
      "payable": false,
      "stateMutability": "nonpayable",
      "type": "function"
    },
    {
      "constant": false,
      "inputs": [
        {
          "name": "_spender",
          "type": "address"
        },
        {
          "name": "_subtractedValue",
          "type": "uint256"
        }
      ],
      "name": "decreaseApproval",
      "outputs": [
        {
          "name": "",
          "type": "bool"
        }
      ],
      "payable": false,
      "stateMutability": "nonpayable",
      "type": "function"
    }
  ],
  "bytecode": "0x608060405234801561001057600080fd5b50336000806101000a81548173ffffffffffffffffffffffffffffffffffffffff021916908373ffffffffffffffffffffffffffffffffffffffff1602179055506064600581905550600554600360008060009054906101000a900473ffffffffffffffffffffffffffffffffffffffff1673ffffffffffffffffffffffffffffffffffffffff1673ffffffffffffffffffffffffffffffffffffffff16815260200190815260200160002081905550600180819055506001600660006101000a81548160ff021916908315150217905550611c0b806100f16000396000f30060806040526004361061011d576000357c0100000000000000000000000000000000000000000000000000000000900463ffffffff16806306fdde0314610122578063095ea7b3146101b257806318160ddd1461021757806323b872dd14610242578063313ce567146102c757806341c0e1b5146102f857806354fd4d501461030f57806365f2bc2e1461039f57806366188463146103ca57806370a082311461042f578063715018a6146104865780638da5cb5b1461049d578063933ba413146104f457806395d89b411461051f578063a9059cbb146105af578063b60d428814610614578063c4ae31681461061e578063cae9ca511461064d578063d73dd623146106f8578063dd62ed3e1461075d578063f2fde38b146107d4575b600080fd5b34801561012e57600080fd5b50610137610817565b6040518080602001828103825283818151815260200191508051906020019080838360005b8381101561017757808201518184015260208101905061015c565b50505050905090810190601f1680156101a45780820380516001836020036101000a031916815260200191505b509250505060405180910390f35b3480156101be57600080fd5b506101fd600480360381019080803573ffffffffffffffffffffffffffffffffffffffff16906020019092919080359060200190929190505050610850565b604051808215151515815260200191505060405180910390f35b34801561022357600080fd5b5061022c610942565b6040518082815260200191505060405180910390f35b34801561024e57600080fd5b506102ad600480360381019080803573ffffffffffffffffffffffffffffffffffffffff169060200190929190803573ffffffffffffffffffffffffffffffffffffffff1690602001909291908035906020019092919050505061094c565b604051808215151515815260200191505060405180910390f35b3480156102d357600080fd5b506102dc610d0b565b604051808260ff1660ff16815260200191505060405180910390f35b34801561030457600080fd5b5061030d610d10565b005b34801561031b57600080fd5b50610324610da5565b6040518080602001828103825283818151815260200191508051906020019080838360005b83811015610364578082015181840152602081019050610349565b50505050905090810190601f1680156103915780820380516001836020036101000a031916815260200191505b509250505060405180910390f35b3480156103ab57600080fd5b506103b4610dde565b6040518082815260200191505060405180910390f35b3480156103d657600080fd5b50610415600480360381019080803573ffffffffffffffffffffffffffffffffffffffff16906020019092919080359060200190929190505050610de4565b604051808215151515815260200191505060405180910390f35b34801561043b57600080fd5b50610470600480360381019080803573ffffffffffffffffffffffffffffffffffffffff169060200190929190505050611075565b6040518082815260200191505060405180910390f35b34801561049257600080fd5b5061049b6110be565b005b3480156104a957600080fd5b506104b26111c0565b604051808273ffffffffffffffffffffffffffffffffffffffff1673ffffffffffffffffffffffffffffffffffffffff16815260200191505060405180910390f35b34801561050057600080fd5b506105096111e5565b6040518082815260200191505060405180910390f35b34801561052b57600080fd5b506105346111eb565b6040518080602001828103825283818151815260200191508051906020019080838360005b83811015610574578082015181840152602081019050610559565b50505050905090810190601f1680156105a15780820380516001836020036101000a031916815260200191505b509250505060405180910390f35b3480156105bb57600080fd5b506105fa600480360381019080803573ffffffffffffffffffffffffffffffffffffffff16906020019092919080359060200190929190505050611224565b604051808215151515815260200191505060405180910390f35b61061c611448565b005b34801561062a57600080fd5b50610633611466565b604051808215151515815260200191505060405180910390f35b34801561065957600080fd5b506106de600480360381019080803573ffffffffffffffffffffffffffffffffffffffff16906020019092919080359060200190929190803590602001908201803590602001908080601f0160208091040260200160405190810160405280939291908181526020018383808284378201915050505050509192919290505050611529565b604051808215151515815260200191505060405180910390f35b34801561070457600080fd5b50610743600480360381019080803573ffffffffffffffffffffffffffffffffffffffff169060200190929190803590602001909291905050506117c6565b604051808215151515815260200191505060405180910390f35b34801561076957600080fd5b506107be600480360381019080803573ffffffffffffffffffffffffffffffffffffffff169060200190929190803573ffffffffffffffffffffffffffffffffffffffff1690602001909291905050506119c2565b6040518082815260200191505060405180910390f35b3480156107e057600080fd5b50610815600480360381019080803573ffffffffffffffffffffffffffffffffffffffff169060200190929190505050611a49565b005b6040805190810160405280601281526020017f444e5652204361706974616c20546f6b656e000000000000000000000000000081525081565b600081600460003373ffffffffffffffffffffffffffffffffffffffff1673ffffffffffffffffffffffffffffffffffffffff16815260200190815260200160002060008573ffffffffffffffffffffffffffffffffffffffff1673ffffffffffffffffffffffffffffffffffffffff168152602001908152602001600020819055508273ffffffffffffffffffffffffffffffffffffffff163373ffffffffffffffffffffffffffffffffffffffff167f8c5be1e5ebec7d5bd14f71427d1e84f3dd0314c0f7b2291e5b200ac8c7c3b925846040518082815260200191505060405180910390a36001905092915050565b6000600554905090565b60008073ffffffffffffffffffffffffffffffffffffffff168373ffffffffffffffffffffffffffffffffffffffff161415151561098957600080fd5b600360008573ffffffffffffffffffffffffffffffffffffffff1673ffffffffffffffffffffffffffffffffffffffff1681526020019081526020016000205482111515156109d757600080fd5b600460008573ffffffffffffffffffffffffffffffffffffffff1673ffffffffffffffffffffffffffffffffffffffff16815260200190815260200160002060003373ffffffffffffffffffffffffffffffffffffffff1673ffffffffffffffffffffffffffffffffffffffff168152602001908152602001600020548211151515610a6257600080fd5b610ab482600360008773ffffffffffffffffffffffffffffffffffffffff1673ffffffffffffffffffffffffffffffffffffffff16815260200190815260200160002054611ab090919063ffffffff16565b600360008673ffffffffffffffffffffffffffffffffffffffff1673ffffffffffffffffffffffffffffffffffffffff16815260200190815260200160002081905550610b4982600360008673ffffffffffffffffffffffffffffffffffffffff1673ffffffffffffffffffffffffffffffffffffffff16815260200190815260200160002054611ac990919063ffffffff16565b600360008573ffffffffffffffffffffffffffffffffffffffff1673ffffffffffffffffffffffffffffffffffffffff16815260200190815260200160002081905550610c1b82600460008773ffffffffffffffffffffffffffffffffffffffff1673ffffffffffffffffffffffffffffffffffffffff16815260200190815260200160002060003373ffffffffffffffffffffffffffffffffffffffff1673ffffffffffffffffffffffffffffffffffffffff16815260200190815260200160002054611ab090919063ffffffff16565b600460008673ffffffffffffffffffffffffffffffffffffffff1673ffffffffffffffffffffffffffffffffffffffff16815260200190815260200160002060003373ffffffffffffffffffffffffffffffffffffffff1673ffffffffffffffffffffffffffffffffffffffff168152602001908152602001600020819055508273ffffffffffffffffffffffffffffffffffffffff168473ffffffffffffffffffffffffffffffffffffffff167fddf252ad1be2c89b69c2b068fc378daa952ba7f163c4a11628f55a4df523b3ef846040518082815260200191505060405180910390a3600190509392505050565b601281565b6000809054906101000a900473ffffffffffffffffffffffffffffffffffffffff1673ffffffffffffffffffffffffffffffffffffffff163373ffffffffffffffffffffffffffffffffffffffff16141515610d6b57600080fd5b6000809054906101000a900473ffffffffffffffffffffffffffffffffffffffff1673ffffffffffffffffffffffffffffffffffffffff16ff5b6040805190810160405280600481526020017f48312e300000000000000000000000000000000000000000000000000000000081525081565b60015481565b600080600460003373ffffffffffffffffffffffffffffffffffffffff1673ffffffffffffffffffffffffffffffffffffffff16815260200190815260200160002060008573ffffffffffffffffffffffffffffffffffffffff1673ffffffffffffffffffffffffffffffffffffffff16815260200190815260200160002054905080831115610ef5576000600460003373ffffffffffffffffffffffffffffffffffffffff1673ffffffffffffffffffffffffffffffffffffffff16815260200190815260200160002060008673ffffffffffffffffffffffffffffffffffffffff1673ffffffffffffffffffffffffffffffffffffffff16815260200190815260200160002081905550610f89565b610f088382611ab090919063ffffffff16565b600460003373ffffffffffffffffffffffffffffffffffffffff1673ffffffffffffffffffffffffffffffffffffffff16815260200190815260200160002060008673ffffffffffffffffffffffffffffffffffffffff1673ffffffffffffffffffffffffffffffffffffffff168152602001908152602001600020819055505b8373ffffffffffffffffffffffffffffffffffffffff163373ffffffffffffffffffffffffffffffffffffffff167f8c5be1e5ebec7d5bd14f71427d1e84f3dd0314c0f7b2291e5b200ac8c7c3b925600460003373ffffffffffffffffffffffffffffffffffffffff1673ffffffffffffffffffffffffffffffffffffffff16815260200190815260200160002060008873ffffffffffffffffffffffffffffffffffffffff1673ffffffffffffffffffffffffffffffffffffffff168152602001908152602001600020546040518082815260200191505060405180910390a3600191505092915050565b6000600360008373ffffffffffffffffffffffffffffffffffffffff1673ffffffffffffffffffffffffffffffffffffffff168152602001908152602001600020549050919050565b6000809054906101000a900473ffffffffffffffffffffffffffffffffffffffff1673ffffffffffffffffffffffffffffffffffffffff163373ffffffffffffffffffffffffffffffffffffffff1614151561111957600080fd5b6000809054906101000a900473ffffffffffffffffffffffffffffffffffffffff1673ffffffffffffffffffffffffffffffffffffffff167ff8df31144d9c2f0f6b59d69b8b98abd5459d07f2742c4df920b25aae33c6482060405160405180910390a260008060006101000a81548173ffffffffffffffffffffffffffffffffffffffff021916908373ffffffffffffffffffffffffffffffffffffffff160217905550565b6000809054906101000a900473ffffffffffffffffffffffffffffffffffffffff1681565b60025481565b6040805190810160405280600481526020017f444e56520000000000000000000000000000000000000000000000000000000081525081565b60008073ffffffffffffffffffffffffffffffffffffffff168373ffffffffffffffffffffffffffffffffffffffff161415151561126157600080fd5b600360003373ffffffffffffffffffffffffffffffffffffffff1673ffffffffffffffffffffffffffffffffffffffff1681526020019081526020016000205482111515156112af57600080fd5b61130182600360003373ffffffffffffffffffffffffffffffffffffffff1673ffffffffffffffffffffffffffffffffffffffff16815260200190815260200160002054611ab090919063ffffffff16565b600360003373ffffffffffffffffffffffffffffffffffffffff1673ffffffffffffffffffffffffffffffffffffffff1681526020019081526020016000208190555061139682600360008673ffffffffffffffffffffffffffffffffffffffff1673ffffffffffffffffffffffffffffffffffffffff16815260200190815260200160002054611ac990919063ffffffff16565b600360008573ffffffffffffffffffffffffffffffffffffffff1673ffffffffffffffffffffffffffffffffffffffff168152602001908152602001600020819055508273ffffffffffffffffffffffffffffffffffffffff163373ffffffffffffffffffffffffffffffffffffffff167fddf252ad1be2c89b69c2b068fc378daa952ba7f163c4a11628f55a4df523b3ef846040518082815260200191505060405180910390a36001905092915050565b600660009054906101000a900460ff1615151561146457600080fd5b565b60008060009054906101000a900473ffffffffffffffffffffffffffffffffffffffff1673ffffffffffffffffffffffffffffffffffffffff163373ffffffffffffffffffffffffffffffffffffffff161415156114c357600080fd5b600660009054906101000a900460ff16156114f8576000600660006101000a81548160ff021916908315150217905550611514565b6001600660006101000a81548160ff0219169083151502179055505b600660009054906101000a900460ff16905090565b600082600460003373ffffffffffffffffffffffffffffffffffffffff1673ffffffffffffffffffffffffffffffffffffffff16815260200190815260200160002060008673ffffffffffffffffffffffffffffffffffffffff1673ffffffffffffffffffffffffffffffffffffffff168152602001908152602001600020819055508373ffffffffffffffffffffffffffffffffffffffff163373ffffffffffffffffffffffffffffffffffffffff167f8c5be1e5ebec7d5bd14f71427d1e84f3dd0314c0f7b2291e5b200ac8c7c3b925856040518082815260200191505060405180910390a38373ffffffffffffffffffffffffffffffffffffffff1660405180807f72656365697665417070726f76616c28616464726573732c75696e743235362c81526020017f616464726573732c627974657329000000000000000000000000000000000000815250602e01905060405180910390207c01000000000000000000000000000000000000000000000000000000009004338530866040518563ffffffff167c0100000000000000000000000000000000000000000000000000000000028152600401808573ffffffffffffffffffffffffffffffffffffffff1673ffffffffffffffffffffffffffffffffffffffff1681526020018481526020018373ffffffffffffffffffffffffffffffffffffffff1673ffffffffffffffffffffffffffffffffffffffff168152602001828051906020019080838360005b8381101561176a57808201518184015260208101905061174f565b50505050905090810190601f1680156117975780820380516001836020036101000a031916815260200191505b509450505050506000604051808303816000875af19250505015156117bb57600080fd5b600190509392505050565b600061185782600460003373ffffffffffffffffffffffffffffffffffffffff1673ffffffffffffffffffffffffffffffffffffffff16815260200190815260200160002060008673ffffffffffffffffffffffffffffffffffffffff1673ffffffffffffffffffffffffffffffffffffffff16815260200190815260200160002054611ac990919063ffffffff16565b600460003373ffffffffffffffffffffffffffffffffffffffff1673ffffffffffffffffffffffffffffffffffffffff16815260200190815260200160002060008573ffffffffffffffffffffffffffffffffffffffff1673ffffffffffffffffffffffffffffffffffffffff168152602001908152602001600020819055508273ffffffffffffffffffffffffffffffffffffffff163373ffffffffffffffffffffffffffffffffffffffff167f8c5be1e5ebec7d5bd14f71427d1e84f3dd0314c0f7b2291e5b200ac8c7c3b925600460003373ffffffffffffffffffffffffffffffffffffffff1673ffffffffffffffffffffffffffffffffffffffff16815260200190815260200160002060008773ffffffffffffffffffffffffffffffffffffffff1673ffffffffffffffffffffffffffffffffffffffff168152602001908152602001600020546040518082815260200191505060405180910390a36001905092915050565b6000600460008473ffffffffffffffffffffffffffffffffffffffff1673ffffffffffffffffffffffffffffffffffffffff16815260200190815260200160002060008373ffffffffffffffffffffffffffffffffffffffff1673ffffffffffffffffffffffffffffffffffffffff16815260200190815260200160002054905092915050565b6000809054906101000a900473ffffffffffffffffffffffffffffffffffffffff1673ffffffffffffffffffffffffffffffffffffffff163373ffffffffffffffffffffffffffffffffffffffff16141515611aa457600080fd5b611aad81611ae5565b50565b6000828211151515611abe57fe5b818303905092915050565b60008183019050828110151515611adc57fe5b80905092915050565b600073ffffffffffffffffffffffffffffffffffffffff168173ffffffffffffffffffffffffffffffffffffffff1614151515611b2157600080fd5b8073ffffffffffffffffffffffffffffffffffffffff166000809054906101000a900473ffffffffffffffffffffffffffffffffffffffff1673ffffffffffffffffffffffffffffffffffffffff167f8be0079c531659141344cd1fd0a4f28419497f9722a3daafe3b4186f6b6457e060405160405180910390a3806000806101000a81548173ffffffffffffffffffffffffffffffffffffffff021916908373ffffffffffffffffffffffffffffffffffffffff160217905550505600a165627a7a7230582053cdf7c28032e7fb793caeb789c9189c0daf4e20432fb8ad5a5cd9e35f7082cc0029",
  "source": "pragma solidity ^0.4.24;\n\nimport 'openzeppelin-solidity/contracts/token/ERC20/ERC20.sol';\nimport 'openzeppelin-solidity/contracts/ownership/Ownable.sol';\nimport 'openzeppelin-solidity/contracts/math/SafeMath.sol';\n\ncontract DNVR is ERC20, Ownable {\n  using SafeMath for uint256;\n\n  string public constant name = \"DNVR Capital Token\";\n  string public constant symbol = \"DNVR\";\n  string public constant version = \"H1.0\";\n  uint8 public constant decimals = 18;\n\n  uint256 public unitsOneEthCanBuy;     // How many units of your coin can be bought by 1 ETH?\n  uint256 public totalEthInWei;         // WEI is the smallest unit of ETH (the equivalent of cent in USD or satoshi in BTC). We'll store the total ETH raised via our ICO here.\n\n  mapping (address => uint256) balances;\n  mapping (address => mapping (address => uint256)) internal allowed;\n\n  uint256 _totalSupply;\n  bool _paused;\n\n  event Transfer(address indexed _from, address indexed _to, uint256 _value);\n  event Approval(address indexed _owner, address indexed _spender, uint256 _value);\n\n\n  constructor() public {\n    _totalSupply = 100;\n    balances[owner] = _totalSupply;\n    unitsOneEthCanBuy = 1;\n\n    _paused = true;\n  }\n\n  function fund() external whenNotPaused payable {\n\n  }\n\n  function kill() external onlyOwner {\n    selfdestruct(owner);\n  }\n\n  modifier whenNotPaused(){\n    require(!_paused);\n    _;\n  }\n\n  function togglePause() public onlyOwner returns (bool) {\n    if (_paused) {\n      _paused = false;\n    } else {\n      _paused = true;\n    }\n\n    return _paused;\n  }\n\n  /* Approves and then calls the receiving contract */\n  function approveAndCall(address _spender, uint256 _value, bytes _extraData) public returns (bool success) {\n      allowed[msg.sender][_spender] = _value;\n      emit Approval(msg.sender, _spender, _value);\n\n      //call the receiveApproval function on the contract you want to be notified. This crafts the function signature manually so one doesn't have to include a contract in here just for this.\n      //receiveApproval(address _from, uint256 _value, address _tokenContract, bytes _extraData)\n      //it is assumed that when does this that the call *should* succeed, otherwise one would use vanilla approve instead.\n      if(!_spender.call(bytes4(bytes32(keccak256(\"receiveApproval(address,uint256,address,bytes)\"))), msg.sender, _value, this, _extraData)) { revert(); }\n      return true;\n  }\n\n  /**\n   * @dev total number of tokens in existence\n   */\n  function totalSupply() public view returns (uint256) {\n    return _totalSupply;\n  }\n\n  /**\n  * @dev transfer token for a specified address\n  * @param _to The address to transfer to.\n  * @param _value The amount to be transferred.\n  */\n  function transfer(address _to, uint256 _value) public returns (bool) {\n    require(_to != address(0));\n    require(_value <= balances[msg.sender]);\n\n    balances[msg.sender] = balances[msg.sender].sub(_value);\n    balances[_to] = balances[_to].add(_value);\n    emit Transfer(msg.sender, _to, _value);\n    return true;\n  }\n\n  /**\n  * @dev Gets the balance of the specified address.\n  * @param _owner The address to query the the balance of.\n  * @return An uint256 representing the amount owned by the passed address.\n  */\n  function balanceOf(address _owner) public view returns (uint256) {\n    return balances[_owner];\n  }\n\n  /**\n   * @dev Transfer tokens from one address to another\n   * @param _from address The address which you want to send tokens from\n   * @param _to address The address which you want to transfer to\n   * @param _value uint256 the amount of tokens to be transferred\n   */\n  function transferFrom(\n    address _from,\n    address _to,\n    uint256 _value\n  )\n    public\n    returns (bool)\n  {\n    require(_to != address(0));\n    require(_value <= balances[_from]);\n    require(_value <= allowed[_from][msg.sender]);\n\n    balances[_from] = balances[_from].sub(_value);\n    balances[_to] = balances[_to].add(_value);\n    allowed[_from][msg.sender] = allowed[_from][msg.sender].sub(_value);\n    emit Transfer(_from, _to, _value);\n    return true;\n  }\n\n  /**\n   * @dev Approve the passed address to spend the specified amount of tokens on behalf of msg.sender.\n   *\n   * Beware that changing an allowance with this method brings the risk that someone may use both the old\n   * and the new allowance by unfortunate transaction ordering. One possible solution to mitigate this\n   * race condition is to first reduce the spender's allowance to 0 and set the desired value afterwards:\n   * https://github.com/ethereum/EIPs/issues/20#issuecomment-263524729\n   * @param _spender The address which will spend the funds.\n   * @param _value The amount of tokens to be spent.\n   */\n  function approve(address _spender, uint256 _value) public returns (bool) {\n    allowed[msg.sender][_spender] = _value;\n    emit Approval(msg.sender, _spender, _value);\n    return true;\n  }\n\n  /**\n   * @dev Function to check the amount of tokens that an owner allowed to a spender.\n   * @param _owner address The address which owns the funds.\n   * @param _spender address The address which will spend the funds.\n   * @return A uint256 specifying the amount of tokens still available for the spender.\n   */\n  function allowance(\n    address _owner,\n    address _spender\n   )\n    public\n    view\n    returns (uint256)\n  {\n    return allowed[_owner][_spender];\n  }\n\n  /**\n   * @dev Increase the amount of tokens that an owner allowed to a spender.\n   *\n   * approve should be called when allowed[_spender] == 0. To increment\n   * allowed value is better to use this function to avoid 2 calls (and wait until\n   * the first transaction is mined)\n   * From MonolithDAO Token.sol\n   * @param _spender The address which will spend the funds.\n   * @param _addedValue The amount of tokens to increase the allowance by.\n   */\n  function increaseApproval(\n    address _spender,\n    uint _addedValue\n  )\n    public\n    returns (bool)\n  {\n    allowed[msg.sender][_spender] = (\n      allowed[msg.sender][_spender].add(_addedValue));\n    emit Approval(msg.sender, _spender, allowed[msg.sender][_spender]);\n    return true;\n  }\n\n  /**\n   * @dev Decrease the amount of tokens that an owner allowed to a spender.\n   *\n   * approve should be called when allowed[_spender] == 0. To decrement\n   * allowed value is better to use this function to avoid 2 calls (and wait until\n   * the first transaction is mined)\n   * From MonolithDAO Token.sol\n   * @param _spender The address which will spend the funds.\n   * @param _subtractedValue The amount of tokens to decrease the allowance by.\n   */\n  function decreaseApproval(\n    address _spender,\n    uint _subtractedValue\n  )\n    public\n    returns (bool)\n  {\n    uint oldValue = allowed[msg.sender][_spender];\n    if (_subtractedValue > oldValue) {\n      allowed[msg.sender][_spender] = 0;\n    } else {\n      allowed[msg.sender][_spender] = oldValue.sub(_subtractedValue);\n    }\n    emit Approval(msg.sender, _spender, allowed[msg.sender][_spender]);\n    return true;\n  }\n}\n",
  "sourcePath": "/Users/alexmanelis/Development/Solidity/dnvr/contracts/DNVR.sol",
  "compiler": {
    "name": "solc",
    "version": "0.4.24+commit.e67f0147.Emscripten.clang"
  },
  "schemaVersion": "2.0.0",
  "updatedAt": "2018-06-08T06:18:52.917Z"
}